:100000000C9473000C9492000C9492000C94920047
:100010000C9492000C9492000C9492000C94920018
:100020000C9492000C9492000C9492000C94920008
:100030000C9492000C9492000C9492000C9408037F
:100040000C9492000C9492000C9492000C949200E8
:100050000C9492000C9492000C9492000C949200D8
:100060000C9492000C9492000C9492000C949200C8
:100070000C9492000C9492000C9492000C949200B8
:100080000C9492000C9492000C94920008000000D2
:10009000BE922449123EABAAAA2ABECDCCCC4C3E7D
:1000A00000000080BEABAAAAAA3E00000000BF006C
:1000B0000000803F0000000000084178D3BB438768
:1000C000D1133D190E3CC3BD4282AD2B3E68EC827C
:1000D00076BED98FE1A93E4C80EFFFBE01C4FF7F01
:1000E0003F000000000011241FBECFEFD0E1DEBFB3
:1000F000CDBF11E0A0E0B1E0EAE7F0E100E00BBF26
:1001000002C007900D92A831B107D9F711E0A8E11C
:10011000B1E001C01D92A138B107E1F70E946D0561
:100120000C943B080C94000087E081BB8093640032
:100130009FEF94BB84B38ABB95BB85B38BBB1092F6
:100140006100109262008EE883BF80E88FBF82E07A
:1001500087BF8EE181BF10927A01109269010895E4
:100160009091690191FF0CC080917A018F5F80931B
:100170007A01833010F010927A019D7F909369018B
:100180009091690192FF0CC080917A01882311F04F
:10019000815001C082E080937A019B7F9093690136
:1001A0009091690193FF14C080917A01813039F0F8
:1001B000813018F0823049F405C082E004C010920A
:1001C0007A0103C081E080937A01977F909369015F
:1001D00080917A01813041F0813018F0823059F4F9
:1001E00007C09298919A02C0929A9198909A089515
:1001F000929A919A90980895AF92BF92CF92DF927F
:10020000EF92FF920F931F9386E087B987EC86B930
:100210003699FECFE4B025B1722F60E0882777FDD4
:100220008095982F0E9479065B016C01FF240027BE
:10023000F7FC0095102FC801B7010E9479069B01B9
:10024000AC01C601B5010E947F0524E13EEA4FE9F9
:1002500050E40E944E0720E030E040E250E40E946B
:100260004E0720E030E040E85AE30E944E076093DA
:1002700036017093370180933801909339012091B2
:100280003E0130913F0140914001509141010E9457
:100290007F057B018C0160933E0170933F01809349
:1002A000400190934101609135016436A0F170E006
:1002B0006F5F7F4F882777FD8095982F0E94790682
:1002C0009B01AC01C801B7010E94E3057B018C01D1
:1002D000DC019B01AC012093360130933701409340
:1002E000380150933901CB0180933A0190933B013F
:1002F000A0933C01B0933D011092350180E090E065
:10030000A0E0B0E080933E0190933F01A0934001B4
:10031000B09341010BC06F5F60933501E0903A01EB
:10032000F0903B0100913C0110913D01B701C801E3
:100330001F910F91FF90EF90DF90CF90BF90AF9003
:100340000895AF92BF92CF92DF92EF92FF920F93F8
:100350001F9317B887EC86B93699FECFE4B025B164
:10036000722F60E0882777FD8095982F0E9479068C
:100370005B016C01FF240027F7FC0095102FC801DA
:10038000B7010E9479069B01AC01C601B5010E942C
:100390007F0524E13EEA4FE950E40E944E0725EE36
:1003A0003DE94FEB50E40E944E0720E030E040E88A
:1003B0005AE30E944E076093290170932A018093AB
:1003C0002B0190932C012091310130913201409109
:1003D0003301509134010E947F057B018C016093B1
:1003E0003101709332018093330190933401609115
:1003F00028016436A0F170E06F5F7F4F882777FD9A
:100400008095982F0E9479069B01AC01C801B70125
:100410000E94E3057B018C01DC019B01AC01209370
:10042000290130932A0140932B0150932C01CB01D9
:1004300080932D0190932E01A0932F01B093300152
:100440001092280180E090E0A0E0B0E080933101BC
:1004500090933201A0933301B09334010BC06F5FCE
:1004600060932801E0902D01F0902E0100912F0162
:1004700010913001B701C8011F910F91FF90EF90CB
:10048000DF90CF90BF90AF900895E82F613049F48E
:1004900085B3F0E0E45FFE4F80789081892B85BBC7
:1004A0000895623041F48BB3F0E0E45FFE4F807852
:1004B0009081892B8BBB08958F929F92AF92BF92B0
:1004C000CF92DF92EF92FF920F931F93CF93DF9320
:1004D000162F072FF82EE92EEA0120E030EC49E72D
:1004E00054E40E94050718165CF40F2EF0E08F2EDE
:1004F000F0EC9F2EF9E7AF2EF4E4BF2EF02D06C0EE
:10050000812F902FAF2DBE2D4C015D01812F902F9B
:10051000AF2DBE2D7C018D01CC2484E6D82E10C0D9
:10052000C801B70120E030E040E251E40E94E30559
:100530007B018C01C3948D2D6AE00E940808D82E9F
:10054000C801B70120E030E040E251E40E94050715
:1005500087FFE6CF1D821C821B82FE01EC0DF11D80
:1005600081E083836D2D70E0882777FD8095982F3B
:100570000E9479069B01AC01C501B4010E944E079F
:100580000E944B06F62E072FCB0140E011E0EAE077
:1005900009C06AE070E00E941408CB014F5F1E9F03
:1005A000102D11248A309105A4F782E0841BFE01EE
:1005B00020E030E0C82FD0E02C173D07ACF08F2DA5
:1005C000902F612F70E00E94140860838F2D902F70
:1005D000612F70E00E941408F82E092F812F6AE025
:1005E0000E940808182F01C010822F5F3F4F3196DC
:1005F0002330310509F7DF91CF911F910F91FF90C3
:10060000EF90DF90CF90BF90AF909F908F90089524
:100610001F920F920FB60F920BB60F9211241F93D9
:100620002F933F934F935F936F937F938F939F93FA
:10063000AF93BF93EF93FF93859B1EC020911B0147
:1006400030911C018FEF2F3F380751F080916901E5
:1006500081FD06C02F5F3F4F30931C0120931B018B
:100660008091210190912201C39768F180916901E5
:1006700081FD29C08D7F1DC0209121013091220173
:100680008FEF2F3F380751F08091690181FD06C03F
:100690002F5F3F4F309322012093210180911B0156
:1006A00090911C01C39778F08091690181FD0BC086
:1006B00082608093690110922201109221011092B0
:1006C0001C0110921B01869B1EC020911D013091C0
:1006D0001E018FEF2F3F380751F08091690182FD95
:1006E00006C02F5F3F4F30931E0120931D01809164
:1006F000230190912401C39768F18091690182FDE3
:1007000029C08B7F1DC020912301309124018FEFE0
:100710002F3F380751F08091690182FD06C02F5F9D
:100720003F4F309324012093230180911D0190912C
:100730001E01C39778F08091690182FD0BC084602F
:1007400080936901109224011092230110921E01DE
:1007500010921D01879B1EC020911F013091200126
:100760008FEF2F3F380751F08091690183FD06C05C
:100770002F5F3F4F3093200120931F01809125016F
:1007800090912601C39768F18091690183FD29C08A
:10079000877F1DC020912501309126018FEF2F3FCB
:1007A000380751F08091690183FD06C02F5F3F4FEC
:1007B000309326012093250180911F019091200103
:1007C000C39778F08091690183FD0BC088608093A6
:1007D00069011092260110922501109220011092B9
:1007E0001F0110912701113049F1113020F0123012
:1007F00009F06EC046C0809165008E7F80936500D1
:1008000080916500826080936500809165008460BE
:10081000809365008091530161E00E9445028091C0
:100820007B0162E00E94450280915601882311F409
:10083000AF9A01C0AF9880917E0145C0809165005C
:10084000816080936500809165008D7F8093650055
:10085000809165008460809365008091540161E01F
:100860000E94450280917C0162E00E9445028091D5
:100870005701882311F4AF9A01C0AF9880917F018E
:1008800022C0809165008160809365008091650041
:10089000826080936500809165008B7F8093650006
:1008A0008091550161E00E94450280917D0162E0E6
:1008B0000E94450280915801882311F4AF9A01C02B
:1008C000AF9880918001882311F4DF9A01C0DF98EE
:1008D000812F8F5F80932701833010F010922701C2
:1008E000FF91EF91BF91AF919F918F917F916F9108
:1008F0005F914F913F912F911F910F900BBE0F90E1
:100900000FBE0F901F901895AF92BF92CF92DF92BB
:10091000EF92FF920F931F9383E087B987EC86B91C
:100920003699FECFE4B025B1722F60E0882777FDBD
:100930008095982F0E9479065B016C01FF240027A7
:10094000F7FC0095102FC801B7010E9479069B01A2
:10095000AC01C601B5010E947F0524E13EEA4FE9E2
:1009600050E40E944E0720E030E040E85AE30E9445
:100970004E077B018C016093430170934401809387
:1009800045019093460164E17EEA8FE990E4A80175
:1009900097010E947E059B01AC01C801B7010E942E
:1009A000E3050E940E077B018C0128E53DED4FE831
:1009B00059E30E944E0728EC3EEC4BE55BE30E94B6
:1009C0007F055B016C01C801B70125E936E146E707
:1009D00056E30E944E07A80197010E944E079B0113
:1009E000AC01C601B5010E947F059B01AC0160E02E
:1009F00070E080E89FE30E94E30523E333E948E8E1
:100A000053E40E947E0560934701709348018093F0
:100A1000490190934A0120914F013091500140913A
:100A20005101509152010E947F057B018C0160931E
:100A30004F01709350018093510190935201609146
:100A400042016436A0F170E06F5F7F4F882777FD29
:100A50008095982F0E9479069B01AC01C801B701CF
:100A60000E94E3057B018C01DC019B01AC0120931A
:100A70004701309348014093490150934A01CB010B
:100A800080934B0190934C01A0934D01B0934E0184
:100A90001092420180E090E0A0E0B0E080934F012E
:100AA00090935001A0935101B09352010BC06F5F1E
:100AB00060934201E0904B01F0904C0100914D0198
:100AC00010914E01B701C8011F910F91FF90EF9057
:100AD000DF90CF90BF90AF9008950E9494000E9445
:100AE000FC0043E551E00E945C020E9484044BE755
:100AF00051E00E945C020E94B000F1CF5058BB2729
:100B0000AA270ED048C139D130F03ED120F031F4BF
:100B10009F3F11F41EF42EC10EF4E095E7FB24C1B3
:100B2000E92F4AD180F3BA17620773078407950744
:100B300018F071F49EF562C10EF4E0950B2EBA2FF9
:100B4000A02D0B01B90190010C01CA01A0011124D3
:100B5000FF27591B99F0593F50F4503E68F11A167F
:100B6000F040A22F232F342F4427585FF3CF469510
:100B700037952795A795F0405395C9F77EF41F1632
:100B8000BA0B620B730B840BBAF09150A1F0FF0FFC
:100B9000BB1F661F771F881FC2F70EC0BA0F621FE8
:100BA000731F841F48F4879577956795B795F795D8
:100BB0009E3F08F0B3CF9395880F08F09927EE0F6A
:100BC0009795879508950CD0E6C0DED040F0D5D03B
:100BD00030F021F45F3F19F0C7C0511110C1CAC0F5
:100BE000EBD098F39923C9F35523B1F3951B550B1B
:100BF000BB27AA2762177307840738F09F5F5F4FF0
:100C0000220F331F441FAA1FA9F333D00E2E3AF030
:100C1000E0E830D091505040E695001CCAF729D04A
:100C2000FE2F27D0660F771F881FBB1F2617370799
:100C30004807AB07B0E809F0BB0B802DBF01FF27C9
:100C400093585F4F2AF09E3F510568F08DC0D7C082
:100C50005F3FECF3983EDCF3869577956795B79503
:100C6000F7959F5FC9F7880F911D9695879597F91E
:100C70000895E1E0660F771F881FBB1F6217730797
:100C80008407BA0720F0621B730B840BBA0BEE1FAC
:100C900088F7E095089598D088F09F5790F0B92F85
:100CA0009927B751A0F0D1F0660F771F881F991FC1
:100CB0001AF0BA95C9F712C0B13081F09FD0B1E0F7
:100CC00008959CC0672F782F8827B85F39F0B93F07
:100CD000CCF3869577956795B395D9F73EF49095C3
:100CE0008095709561957F4F8F4F9F4F0895E89441
:100CF00009C097FB3EF490958095709561957F4F64
:100D00008F4F9F4F9923A9F0F92F96E9BB27939511
:100D1000F695879577956795B795F111F8CFFAF421
:100D2000BB0F11F460FF1BC06F5F7F4F8F4F9F4F52
:100D300016C0882311F096E911C0772321F09EE8B0
:100D4000872F762F05C0662371F096E8862F70E016
:100D500060E02AF09A95660F771F881FDAF7880FF0
:100D60009695879597F9089597F99F6780E870E0C1
:100D700060E008959FEF80EC089500240A94161611
:100D8000170618060906089500240A941216130679
:100D9000140605060895092E0394000C11F4882307
:100DA00052F0BB0F40F4BF2B11F460FF04C06F5F23
:100DB0007F4F8F4F9F4F089557FD9058440F551FF9
:100DC00059F05F3F71F04795880F97FB991F61F0CD
:100DD0009F3F79F087950895121613061406551F44
:100DE000F2CF4695F1DF08C0161617061806991FB0
:100DF000F1CF86957105610508940895E894BB27A5
:100E000066277727CB0197F90895ABD008F48FEFC9
:100E100008950EF0CAC0AECF6894A6CFD5DFC8F350
:100E20009923D1F3C6F3DF93CF931F930F93FF92D0
:100E3000C92FDD2788232AF02197660F771F881F87
:100E4000DAF720E030E040E85FEB9FE3883920F0FC
:100E5000803E30F021968F7752DEECE8F0E003C060
:100E60004EDEE9EBF0E0AFD08B01BE01EC01FB2ED2
:100E70006F5771097595771F880B990B3ADF28E139
:100E800032E741E35FE316D0AF2D9801AE01FF904A
:100E90000F911F91CF91DF9143DE7DCF0BD07BCFA0
:100EA0006CDF28F071DF18F0952309F05DCF62CF79
:100EB0001124A5CF81DFA0F3959FD1F3950F50E0CA
:100EC000551F629FF001729FBB27F00DB11D639FFC
:100ED000AA27F00DB11DAA1F649F6627B00DA11DA2
:100EE000661F829F2227B00DA11D621F739FB00D48
:100EF000A11D621F839FA00D611D221F749F3327B8
:100F0000A00D611D231F849F600D211D822F762F50
:100F10006A2F11249F5750408AF0E1F088234AF04D
:100F2000EE0FFF1FBB1F661F771F881F9150504099
:100F3000A9F79E3F510570F017CF61CF5F3FECF3EB
:100F4000983EDCF3869577956795B795F795E79585
:100F50009F5FC1F7FE2B880F911D9695879597F996
:100F60000895990F0008550FAA0BE0E8FEEF16163A
:100F70001706E807F907C0F012161306E407F5078D
:100F800098F0621B730B840B950B39F40A2661F001
:100F9000232B242B252B21F408950A2609F4A140A4
:100FA000A6958FEF811D811D08959F3F31F09150CF
:100FB00020F4879577956795B795880F911D96953D
:100FC000879597F90895DF93CF931F930F93FF921F
:100FD000EF92DF927B018C01689405C0DA2EEF015D
:100FE00069DFFE01E894A5912591359145915591D0
:100FF000AEF3EF0195DDFE019701A801DA9479F7D0
:10100000DF90EF90FF900F911F91CF91DF910895A6
:10101000991B79E004C0991F961708F0961B881F4A
:101020007A95C9F78095089597FB092E07260AD06F
:1010300077FD04D00CD006D000201AF4709561958D
:101040007F4F0895F6F7909581959F4F0895AA1BBD
:10105000BB1B51E107C0AA1FBB1FA617B70710F0A3
:10106000A61BB70B881F991F5A95A9F780959095D5
:0A107000BC01CD010895F894FFCFF4
:10107A0014AE9F40CDCCCC3E0C022B3EC0F9A4B09E
:08108A00999282F880900100A8
:00000001FF
